{
  "contractName": "SolnSquareVerifier",
  "abi": [
    {
      "anonymous": false,
      "inputs": [
        {
          "indexed": true,
          "internalType": "address",
          "name": "owner",
          "type": "address"
        },
        {
          "indexed": true,
          "internalType": "address",
          "name": "approved",
          "type": "address"
        },
        {
          "indexed": true,
          "internalType": "uint256",
          "name": "tokenId",
          "type": "uint256"
        }
      ],
      "name": "Approval",
      "type": "event"
    },
    {
      "anonymous": false,
      "inputs": [
        {
          "indexed": true,
          "internalType": "address",
          "name": "owner",
          "type": "address"
        },
        {
          "indexed": true,
          "internalType": "address",
          "name": "operator",
          "type": "address"
        },
        {
          "indexed": false,
          "internalType": "bool",
          "name": "approved",
          "type": "bool"
        }
      ],
      "name": "ApprovalForAll",
      "type": "event"
    },
    {
      "anonymous": false,
      "inputs": [
        {
          "indexed": false,
          "internalType": "address",
          "name": "whoTriggered",
          "type": "address"
        }
      ],
      "name": "Paused",
      "type": "event"
    },
    {
      "anonymous": false,
      "inputs": [
        {
          "indexed": false,
          "internalType": "bytes32",
          "name": "key",
          "type": "bytes32"
        }
      ],
      "name": "SolutionAdded",
      "type": "event"
    },
    {
      "anonymous": false,
      "inputs": [
        {
          "indexed": true,
          "internalType": "address",
          "name": "from",
          "type": "address"
        },
        {
          "indexed": true,
          "internalType": "address",
          "name": "to",
          "type": "address"
        },
        {
          "indexed": true,
          "internalType": "uint256",
          "name": "tokenId",
          "type": "uint256"
        }
      ],
      "name": "Transfer",
      "type": "event"
    },
    {
      "anonymous": false,
      "inputs": [
        {
          "indexed": false,
          "internalType": "address",
          "name": "newOwner",
          "type": "address"
        }
      ],
      "name": "TransferredOwnership",
      "type": "event"
    },
    {
      "anonymous": false,
      "inputs": [
        {
          "indexed": false,
          "internalType": "address",
          "name": "whoTriggered",
          "type": "address"
        }
      ],
      "name": "Unpaused",
      "type": "event"
    },
    {
      "anonymous": false,
      "inputs": [
        {
          "indexed": false,
          "internalType": "string",
          "name": "s",
          "type": "string"
        }
      ],
      "name": "Verified",
      "type": "event"
    },
    {
      "constant": false,
      "inputs": [
        {
          "internalType": "bytes32",
          "name": "_myid",
          "type": "bytes32"
        },
        {
          "internalType": "string",
          "name": "_result",
          "type": "string"
        }
      ],
      "name": "__callback",
      "outputs": [],
      "payable": false,
      "stateMutability": "nonpayable",
      "type": "function"
    },
    {
      "constant": false,
      "inputs": [
        {
          "internalType": "bytes32",
          "name": "_myid",
          "type": "bytes32"
        },
        {
          "internalType": "string",
          "name": "_result",
          "type": "string"
        },
        {
          "internalType": "bytes",
          "name": "_proof",
          "type": "bytes"
        }
      ],
      "name": "__callback",
      "outputs": [],
      "payable": false,
      "stateMutability": "nonpayable",
      "type": "function"
    },
    {
      "constant": false,
      "inputs": [
        {
          "internalType": "address",
          "name": "to",
          "type": "address"
        },
        {
          "internalType": "uint256",
          "name": "tokenId",
          "type": "uint256"
        }
      ],
      "name": "approve",
      "outputs": [],
      "payable": false,
      "stateMutability": "nonpayable",
      "type": "function"
    },
    {
      "constant": true,
      "inputs": [
        {
          "internalType": "address",
          "name": "owner",
          "type": "address"
        }
      ],
      "name": "balanceOf",
      "outputs": [
        {
          "internalType": "uint256",
          "name": "",
          "type": "uint256"
        }
      ],
      "payable": false,
      "stateMutability": "view",
      "type": "function"
    },
    {
      "constant": true,
      "inputs": [
        {
          "internalType": "uint256",
          "name": "tokenId",
          "type": "uint256"
        }
      ],
      "name": "getApproved",
      "outputs": [
        {
          "internalType": "address",
          "name": "",
          "type": "address"
        }
      ],
      "payable": false,
      "stateMutability": "view",
      "type": "function"
    },
    {
      "constant": true,
      "inputs": [],
      "name": "getBaseTokenURI",
      "outputs": [
        {
          "internalType": "string",
          "name": "",
          "type": "string"
        }
      ],
      "payable": false,
      "stateMutability": "view",
      "type": "function"
    },
    {
      "constant": true,
      "inputs": [],
      "name": "getName",
      "outputs": [
        {
          "internalType": "string",
          "name": "",
          "type": "string"
        }
      ],
      "payable": false,
      "stateMutability": "view",
      "type": "function"
    },
    {
      "constant": true,
      "inputs": [],
      "name": "getOwner",
      "outputs": [
        {
          "internalType": "address",
          "name": "",
          "type": "address"
        }
      ],
      "payable": false,
      "stateMutability": "view",
      "type": "function"
    },
    {
      "constant": true,
      "inputs": [],
      "name": "getSymbol",
      "outputs": [
        {
          "internalType": "string",
          "name": "",
          "type": "string"
        }
      ],
      "payable": false,
      "stateMutability": "view",
      "type": "function"
    },
    {
      "constant": true,
      "inputs": [
        {
          "internalType": "address",
          "name": "owner",
          "type": "address"
        },
        {
          "internalType": "address",
          "name": "operator",
          "type": "address"
        }
      ],
      "name": "isApprovedForAll",
      "outputs": [
        {
          "internalType": "bool",
          "name": "",
          "type": "bool"
        }
      ],
      "payable": false,
      "stateMutability": "view",
      "type": "function"
    },
    {
      "constant": false,
      "inputs": [
        {
          "internalType": "address",
          "name": "to",
          "type": "address"
        },
        {
          "internalType": "uint256",
          "name": "tokenId",
          "type": "uint256"
        }
      ],
      "name": "mint",
      "outputs": [
        {
          "internalType": "bool",
          "name": "",
          "type": "bool"
        }
      ],
      "payable": false,
      "stateMutability": "nonpayable",
      "type": "function"
    },
    {
      "constant": true,
      "inputs": [
        {
          "internalType": "uint256",
          "name": "tokenId",
          "type": "uint256"
        }
      ],
      "name": "ownerOf",
      "outputs": [
        {
          "internalType": "address",
          "name": "",
          "type": "address"
        }
      ],
      "payable": false,
      "stateMutability": "view",
      "type": "function"
    },
    {
      "constant": false,
      "inputs": [
        {
          "internalType": "address",
          "name": "from",
          "type": "address"
        },
        {
          "internalType": "address",
          "name": "to",
          "type": "address"
        },
        {
          "internalType": "uint256",
          "name": "tokenId",
          "type": "uint256"
        }
      ],
      "name": "safeTransferFrom",
      "outputs": [],
      "payable": false,
      "stateMutability": "nonpayable",
      "type": "function"
    },
    {
      "constant": false,
      "inputs": [
        {
          "internalType": "address",
          "name": "from",
          "type": "address"
        },
        {
          "internalType": "address",
          "name": "to",
          "type": "address"
        },
        {
          "internalType": "uint256",
          "name": "tokenId",
          "type": "uint256"
        },
        {
          "internalType": "bytes",
          "name": "_data",
          "type": "bytes"
        }
      ],
      "name": "safeTransferFrom",
      "outputs": [],
      "payable": false,
      "stateMutability": "nonpayable",
      "type": "function"
    },
    {
      "constant": false,
      "inputs": [
        {
          "internalType": "address",
          "name": "to",
          "type": "address"
        },
        {
          "internalType": "bool",
          "name": "approved",
          "type": "bool"
        }
      ],
      "name": "setApprovalForAll",
      "outputs": [],
      "payable": false,
      "stateMutability": "nonpayable",
      "type": "function"
    },
    {
      "constant": false,
      "inputs": [
        {
          "internalType": "bool",
          "name": "status",
          "type": "bool"
        }
      ],
      "name": "setPaused",
      "outputs": [],
      "payable": false,
      "stateMutability": "nonpayable",
      "type": "function"
    },
    {
      "constant": false,
      "inputs": [
        {
          "internalType": "uint256",
          "name": "tokenId",
          "type": "uint256"
        }
      ],
      "name": "setTokenURI",
      "outputs": [],
      "payable": false,
      "stateMutability": "nonpayable",
      "type": "function"
    },
    {
      "constant": true,
      "inputs": [
        {
          "internalType": "bytes4",
          "name": "interfaceId",
          "type": "bytes4"
        }
      ],
      "name": "supportsInterface",
      "outputs": [
        {
          "internalType": "bool",
          "name": "",
          "type": "bool"
        }
      ],
      "payable": false,
      "stateMutability": "view",
      "type": "function"
    },
    {
      "constant": true,
      "inputs": [
        {
          "internalType": "uint256",
          "name": "index",
          "type": "uint256"
        }
      ],
      "name": "tokenByIndex",
      "outputs": [
        {
          "internalType": "uint256",
          "name": "",
          "type": "uint256"
        }
      ],
      "payable": false,
      "stateMutability": "view",
      "type": "function"
    },
    {
      "constant": true,
      "inputs": [
        {
          "internalType": "address",
          "name": "owner",
          "type": "address"
        },
        {
          "internalType": "uint256",
          "name": "index",
          "type": "uint256"
        }
      ],
      "name": "tokenOfOwnerByIndex",
      "outputs": [
        {
          "internalType": "uint256",
          "name": "",
          "type": "uint256"
        }
      ],
      "payable": false,
      "stateMutability": "view",
      "type": "function"
    },
    {
      "constant": true,
      "inputs": [
        {
          "internalType": "uint256",
          "name": "tokenId",
          "type": "uint256"
        }
      ],
      "name": "tokenURI",
      "outputs": [
        {
          "internalType": "string",
          "name": "",
          "type": "string"
        }
      ],
      "payable": false,
      "stateMutability": "view",
      "type": "function"
    },
    {
      "constant": true,
      "inputs": [],
      "name": "totalSupply",
      "outputs": [
        {
          "internalType": "uint256",
          "name": "",
          "type": "uint256"
        }
      ],
      "payable": false,
      "stateMutability": "view",
      "type": "function"
    },
    {
      "constant": false,
      "inputs": [
        {
          "internalType": "address",
          "name": "from",
          "type": "address"
        },
        {
          "internalType": "address",
          "name": "to",
          "type": "address"
        },
        {
          "internalType": "uint256",
          "name": "tokenId",
          "type": "uint256"
        }
      ],
      "name": "transferFrom",
      "outputs": [],
      "payable": false,
      "stateMutability": "nonpayable",
      "type": "function"
    },
    {
      "constant": false,
      "inputs": [
        {
          "internalType": "address",
          "name": "newOwner",
          "type": "address"
        }
      ],
      "name": "transferOwnership",
      "outputs": [],
      "payable": false,
      "stateMutability": "nonpayable",
      "type": "function"
    },
    {
      "constant": false,
      "inputs": [
        {
          "internalType": "uint256[2]",
          "name": "a",
          "type": "uint256[2]"
        },
        {
          "internalType": "uint256[2]",
          "name": "a_p",
          "type": "uint256[2]"
        },
        {
          "internalType": "uint256[2][2]",
          "name": "b",
          "type": "uint256[2][2]"
        },
        {
          "internalType": "uint256[2]",
          "name": "b_p",
          "type": "uint256[2]"
        },
        {
          "internalType": "uint256[2]",
          "name": "c",
          "type": "uint256[2]"
        },
        {
          "internalType": "uint256[2]",
          "name": "c_p",
          "type": "uint256[2]"
        },
        {
          "internalType": "uint256[2]",
          "name": "h",
          "type": "uint256[2]"
        },
        {
          "internalType": "uint256[2]",
          "name": "k",
          "type": "uint256[2]"
        },
        {
          "internalType": "uint256[2]",
          "name": "input",
          "type": "uint256[2]"
        }
      ],
      "name": "verifyTx",
      "outputs": [
        {
          "internalType": "bool",
          "name": "r",
          "type": "bool"
        }
      ],
      "payable": false,
      "stateMutability": "nonpayable",
      "type": "function"
    },
    {
      "constant": false,
      "inputs": [
        {
          "internalType": "address",
          "name": "to",
          "type": "address"
        },
        {
          "internalType": "uint256",
          "name": "tokenId",
          "type": "uint256"
        },
        {
          "internalType": "uint256[2]",
          "name": "a",
          "type": "uint256[2]"
        },
        {
          "internalType": "uint256[2]",
          "name": "a_p",
          "type": "uint256[2]"
        },
        {
          "internalType": "uint256[2][2]",
          "name": "b",
          "type": "uint256[2][2]"
        },
        {
          "internalType": "uint256[2]",
          "name": "b_p",
          "type": "uint256[2]"
        },
        {
          "internalType": "uint256[2]",
          "name": "c",
          "type": "uint256[2]"
        },
        {
          "internalType": "uint256[2]",
          "name": "c_p",
          "type": "uint256[2]"
        },
        {
          "internalType": "uint256[2]",
          "name": "h",
          "type": "uint256[2]"
        },
        {
          "internalType": "uint256[2]",
          "name": "k",
          "type": "uint256[2]"
        },
        {
          "internalType": "uint256[2]",
          "name": "input",
          "type": "uint256[2]"
        }
      ],
      "name": "addSolution",
      "outputs": [
        {
          "internalType": "bytes32",
          "name": "",
          "type": "bytes32"
        }
      ],
      "payable": false,
      "stateMutability": "nonpayable",
      "type": "function"
    },
    {
      "constant": false,
      "inputs": [
        {
          "internalType": "bytes32",
          "name": "key",
          "type": "bytes32"
        }
      ],
      "name": "mintToken",
      "outputs": [],
      "payable": false,
      "stateMutability": "nonpayable",
      "type": "function"
    }
  ],
  "bytecode": "0x60806040526040518060400160405280601381526020017f5061747269636961455243373231546f6b656e000000000000000000000000008152506040518060400160405280600381526020017f50544300000000000000000000000000000000000000000000000000000000008152506040518060600160405280603f81526020016200517f603f9139336000806101000a81548173ffffffffffffffffffffffffffffffffffffffff021916908373ffffffffffffffffffffffffffffffffffffffff1602179055507f079076b938875eb6c289c646523dea0710c3fca11a87f93daa0588354a86153e6000809054906101000a900473ffffffffffffffffffffffffffffffffffffffff16604051808273ffffffffffffffffffffffffffffffffffffffff1673ffffffffffffffffffffffffffffffffffffffff16815260200191505060405180910390a160008060146101000a81548160ff021916908315150217905550620001806301ffc9a760e01b6200023460201b60201c565b620001986380ac58cd60e01b6200023460201b60201c565b620001b063780e9d6360e01b6200023460201b60201c565b82600f9080519060200190620001c8929190620002d4565b508160109080519060200190620001e1929190620002d4565b508060119080519060200190620001fa929190620002d4565b5062000213635b5e139f60e01b6200023460201b60201c565b5050506200022e630177c4aa60e01b6200023460201b60201c565b62000383565b63ffffffff60e01b817bffffffffffffffffffffffffffffffffffffffffffffffffffffffff191614156200026857600080fd5b6001806000837bffffffffffffffffffffffffffffffffffffffffffffffffffffffff19167bffffffffffffffffffffffffffffffffffffffffffffffffffffffff1916815260200190815260200160002060006101000a81548160ff02191690831515021790555050565b828054600181600116156101000203166002900490600052602060002090601f016020900481019282601f106200031757805160ff191683800117855562000348565b8280016001018555821562000348579182015b82811115620003475782518255916020019190600101906200032a565b5b5090506200035791906200035b565b5090565b6200038091905b808211156200037c57600081600090555060010162000362565b5090565b90565b614dec80620003936000396000f3fe608060405234801561001057600080fd5b50600436106101a95760003560e01c80634f6ccce7116100f9578063b88d4fde11610097578063c87b56dd11610071578063c87b56dd14610e52578063e985e9c514610ef9578063f2fde38b14610f75578063fe01ff6214610fb9576101a9565b8063b88d4fde14610c9c578063bdc32be014610da1578063bff2612614610e24576101a9565b806373f3be36116100d357806373f3be36146108f0578063893d20e814610bd4578063a22cb46514610c1e578063a521ad7c14610c6e576101a9565b80634f6ccce7146107e85780636352211e1461082a57806370a0823114610898576101a9565b806318160ddd116101665780632f745c59116101405780632f745c591461055657806338bbfa50146105b857806340c10f191461071457806342842e0e1461077a576101a9565b806318160ddd1461040557806323b872dd1461042357806327dc297e14610491576101a9565b806301ffc9a7146101ae578063081812fc14610213578063095ea7b31461028157806315070401146102cf57806316c38b3c1461035257806317d7de7c14610382575b600080fd5b6101f9600480360360208110156101c457600080fd5b8101908080357bffffffffffffffffffffffffffffffffffffffffffffffffffffffff19169060200190929190505050611277565b604051808215151515815260200191505060405180910390f35b61023f6004803603602081101561022957600080fd5b81019080803590602001909291905050506112df565b604051808273ffffffffffffffffffffffffffffffffffffffff1673ffffffffffffffffffffffffffffffffffffffff16815260200191505060405180910390f35b6102cd6004803603604081101561029757600080fd5b81019080803573ffffffffffffffffffffffffffffffffffffffff1690602001909291908035906020019092919050505061131c565b005b6102d76114f6565b6040518080602001828103825283818151815260200191508051906020019080838360005b838110156103175780820151818401526020810190506102fc565b50505050905090810190601f1680156103445780820380516001836020036101000a031916815260200191505b509250505060405180910390f35b6103806004803603602081101561036857600080fd5b81019080803515159060200190929190505050611598565b005b61038a611742565b6040518080602001828103825283818151815260200191508051906020019080838360005b838110156103ca5780820151818401526020810190506103af565b50505050905090810190601f1680156103f75780820380516001836020036101000a031916815260200191505b509250505060405180910390f35b61040d6117e4565b6040518082815260200191505060405180910390f35b61048f6004803603606081101561043957600080fd5b81019080803573ffffffffffffffffffffffffffffffffffffffff169060200190929190803573ffffffffffffffffffffffffffffffffffffffff169060200190929190803590602001909291905050506117f1565b005b610554600480360360408110156104a757600080fd5b8101908080359060200190929190803590602001906401000000008111156104ce57600080fd5b8201836020820111156104e057600080fd5b8035906020019184600183028401116401000000008311171561050257600080fd5b91908080601f016020809104026020016040519081016040528093929190818152602001838380828437600081840152601f19601f820116905080830192505050505050509192919290505050611814565b005b6105a26004803603604081101561056c57600080fd5b81019080803573ffffffffffffffffffffffffffffffffffffffff16906020019092919080359060200190929190505050611857565b6040518082815260200191505060405180910390f35b610712600480360360608110156105ce57600080fd5b8101908080359060200190929190803590602001906401000000008111156105f557600080fd5b82018360208201111561060757600080fd5b8035906020019184600183028401116401000000008311171561062957600080fd5b91908080601f016020809104026020016040519081016040528093929190818152602001838380828437600081840152601f19601f8201169050808301925050505050505091929192908035906020019064010000000081111561068c57600080fd5b82018360208201111561069e57600080fd5b803590602001918460018302840111640100000000831117156106c057600080fd5b91908080601f016020809104026020016040519081016040528093929190818152602001838380828437600081840152601f19601f8201169050808301925050505050505091929192905050506118ca565b005b6107606004803603604081101561072a57600080fd5b81019080803573ffffffffffffffffffffffffffffffffffffffff169060200190929190803590602001909291905050506118cf565b604051808215151515815260200191505060405180910390f35b6107e66004803603606081101561079057600080fd5b81019080803573ffffffffffffffffffffffffffffffffffffffff169060200190929190803573ffffffffffffffffffffffffffffffffffffffff16906020019092919080359060200190929190505050611993565b005b610814600480360360208110156107fe57600080fd5b81019080803590602001909291905050506119b3565b6040518082815260200191505060405180910390f35b6108566004803603602081101561084057600080fd5b81019080803590602001909291905050506119e7565b604051808273ffffffffffffffffffffffffffffffffffffffff1673ffffffffffffffffffffffffffffffffffffffff16815260200191505060405180910390f35b6108da600480360360208110156108ae57600080fd5b81019080803573ffffffffffffffffffffffffffffffffffffffff169060200190929190505050611a24565b6040518082815260200191505060405180910390f35b610bbe60048036036102c081101561090757600080fd5b81019080803573ffffffffffffffffffffffffffffffffffffffff1690602001909291908035906020019092919080604001906002806020026040519081016040528092919082600260200280828437600081840152601f19601f820116905080830192505050505050919291929080604001906002806020026040519081016040528092919082600260200280828437600081840152601f19601f82011690508083019250505050505091929192908060800190600280602002604051908101604052809291906000905b82821015610a27578382604002016002806020026040519081016040528092919082600260200280828437600081840152601f19601f820116905080830192505050505050815260200190600101906109d3565b50505050919291929080604001906002806020026040519081016040528092919082600260200280828437600081840152601f19601f820116905080830192505050505050919291929080604001906002806020026040519081016040528092919082600260200280828437600081840152601f19601f820116905080830192505050505050919291929080604001906002806020026040519081016040528092919082600260200280828437600081840152601f19601f820116905080830192505050505050919291929080604001906002806020026040519081016040528092919082600260200280828437600081840152601f19601f820116905080830192505050505050919291929080604001906002806020026040519081016040528092919082600260200280828437600081840152601f19601f820116905080830192505050505050919291929080604001906002806020026040519081016040528092919082600260200280828437600081840152601f19601f8201169050808301925050505050509192919290505050611a74565b6040518082815260200191505060405180910390f35b610bdc611def565b604051808273ffffffffffffffffffffffffffffffffffffffff1673ffffffffffffffffffffffffffffffffffffffff16815260200191505060405180910390f35b610c6c60048036036040811015610c3457600080fd5b81019080803573ffffffffffffffffffffffffffffffffffffffff169060200190929190803515159060200190929190505050611e18565b005b610c9a60048036036020811015610c8457600080fd5b8101908080359060200190929190505050611f52565b005b610d9f60048036036080811015610cb257600080fd5b81019080803573ffffffffffffffffffffffffffffffffffffffff169060200190929190803573ffffffffffffffffffffffffffffffffffffffff1690602001909291908035906020019092919080359060200190640100000000811115610d1957600080fd5b820183602082011115610d2b57600080fd5b80359060200191846001830284011164010000000083111715610d4d57600080fd5b91908080601f016020809104026020016040519081016040528093929190818152602001838380828437600081840152601f19601f820116905080830192505050505050509192919290505050612164565b005b610da961218a565b6040518080602001828103825283818151815260200191508051906020019080838360005b83811015610de9578082015181840152602081019050610dce565b50505050905090810190601f168015610e165780820380516001836020036101000a031916815260200191505b509250505060405180910390f35b610e5060048036036020811015610e3a57600080fd5b810190808035906020019092919050505061222c565b005b610e7e60048036036020811015610e6857600080fd5b810190808035906020019092919050505061237d565b6040518080602001828103825283818151815260200191508051906020019080838360005b83811015610ebe578082015181840152602081019050610ea3565b50505050905090810190601f168015610eeb5780820380516001836020036101000a031916815260200191505b509250505060405180910390f35b610f5b60048036036040811015610f0f57600080fd5b81019080803573ffffffffffffffffffffffffffffffffffffffff169060200190929190803573ffffffffffffffffffffffffffffffffffffffff169060200190929190505050612444565b604051808215151515815260200191505060405180910390f35b610fb760048036036020811015610f8b57600080fd5b81019080803573ffffffffffffffffffffffffffffffffffffffff1690602001909291905050506124d8565b005b61125d6004803603610280811015610fd057600080fd5b8101908080604001906002806020026040519081016040528092919082600260200280828437600081840152601f19601f820116905080830192505050505050919291929080604001906002806020026040519081016040528092919082600260200280828437600081840152601f19601f82011690508083019250505050505091929192908060800190600280602002604051908101604052809291906000905b828210156110c6578382604002016002806020026040519081016040528092919082600260200280828437600081840152601f19601f82011690508083019250505050505081526020019060010190611072565b50505050919291929080604001906002806020026040519081016040528092919082600260200280828437600081840152601f19601f820116905080830192505050505050919291929080604001906002806020026040519081016040528092919082600260200280828437600081840152601f19601f820116905080830192505050505050919291929080604001906002806020026040519081016040528092919082600260200280828437600081840152601f19601f820116905080830192505050505050919291929080604001906002806020026040519081016040528092919082600260200280828437600081840152601f19601f820116905080830192505050505050919291929080604001906002806020026040519081016040528092919082600260200280828437600081840152601f19601f820116905080830192505050505050919291929080604001906002806020026040519081016040528092919082600260200280828437600081840152601f19601f82011690508083019250505050505091929192905050506126c6565b604051808215151515815260200191505060405180910390f35b600060016000837bffffffffffffffffffffffffffffffffffffffffffffffffffffffff19167bffffffffffffffffffffffffffffffffffffffffffffffffffffffff1916815260200190815260200160002060009054906101000a900460ff169050919050565b60006003600083815260200190815260200160002060009054906101000a900473ffffffffffffffffffffffffffffffffffffffff169050919050565b6002600082815260200190815260200160002060009054906101000a900473ffffffffffffffffffffffffffffffffffffffff1673ffffffffffffffffffffffffffffffffffffffff168273ffffffffffffffffffffffffffffffffffffffff16141561138857600080fd5b611390611def565b73ffffffffffffffffffffffffffffffffffffffff163373ffffffffffffffffffffffffffffffffffffffff1614806114095750600115156114056002600084815260200190815260200160002060009054906101000a900473ffffffffffffffffffffffffffffffffffffffff1633612444565b1515145b61141257600080fd5b816003600083815260200190815260200160002060006101000a81548173ffffffffffffffffffffffffffffffffffffffff021916908373ffffffffffffffffffffffffffffffffffffffff160217905550808273ffffffffffffffffffffffffffffffffffffffff166002600084815260200190815260200160002060009054906101000a900473ffffffffffffffffffffffffffffffffffffffff1673ffffffffffffffffffffffffffffffffffffffff167f8c5be1e5ebec7d5bd14f71427d1e84f3dd0314c0f7b2291e5b200ac8c7c3b92560405160405180910390a45050565b606060108054600181600116156101000203166002900480601f01602080910402602001604051908101604052809291908181526020018280546001816001161561010002031660029004801561158e5780601f106115635761010080835404028352916020019161158e565b820191906000526020600020905b81548152906001019060200180831161157157829003601f168201915b5050505050905090565b6000809054906101000a900473ffffffffffffffffffffffffffffffffffffffff1673ffffffffffffffffffffffffffffffffffffffff163373ffffffffffffffffffffffffffffffffffffffff161461163d576040517f08c379a000000000000000000000000000000000000000000000000000000000815260040180806020018281038252602f815260200180614d30602f913960400191505060405180910390fd5b80600060146101000a81548160ff02191690831515021790555060001515600060149054906101000a900460ff16151514156116db577f62e78cea01bee320cd4e420270b5ea74000d11b0c9f74754ebdbfc544b05a25833604051808273ffffffffffffffffffffffffffffffffffffffff1673ffffffffffffffffffffffffffffffffffffffff16815260200191505060405180910390a161173f565b7f5db9ee0a495bf2e6ff9c91a7834c1ba4fdd244a5e8aa4e537bd38aeae4b073aa33604051808273ffffffffffffffffffffffffffffffffffffffff1673ffffffffffffffffffffffffffffffffffffffff16815260200191505060405180910390a15b50565b6060600f8054600181600116156101000203166002900480601f0160208091040260200160405190810160405280929190818152602001828054600181600116156101000203166002900480156117da5780601f106117af576101008083540402835291602001916117da565b820191906000526020600020905b8154815290600101906020018083116117bd57829003601f168201915b5050505050905090565b6000600880549050905090565b6117fb3382612a4d565b61180457600080fd5b61180f838383612ae2565b505050565b611853828260006040519080825280601f01601f19166020018201604052801561184d5781602001600182028038833980820191505090505b506118ca565b5050565b600061186283611a24565b821061186d57600080fd5b600660008473ffffffffffffffffffffffffffffffffffffffff1673ffffffffffffffffffffffffffffffffffffffff16815260200190815260200160002082815481106118b757fe5b9060005260206000200154905092915050565b505050565b60008060009054906101000a900473ffffffffffffffffffffffffffffffffffffffff1673ffffffffffffffffffffffffffffffffffffffff163373ffffffffffffffffffffffffffffffffffffffff1614611976576040517f08c379a000000000000000000000000000000000000000000000000000000000815260040180806020018281038252602f815260200180614d30602f913960400191505060405180910390fd5b6119808383612b06565b6119898261222c565b6001905092915050565b6119ae83838360405180602001604052806000815250612164565b505050565b60006119bd6117e4565b82106119c857600080fd5b600882815481106119d557fe5b90600052602060002001549050919050565b60006002600083815260200190815260200160002060009054906101000a900473ffffffffffffffffffffffffffffffffffffffff169050919050565b6000611a6d600460008473ffffffffffffffffffffffffffffffffffffffff1673ffffffffffffffffffffffffffffffffffffffff168152602001908152602001600020612b27565b9050919050565b6000801515600060149054906101000a900460ff16151514611afe576040517f08c379a00000000000000000000000000000000000000000000000000000000081526004018080602001828103825260168152602001807f54686520636f6e7472616374206973207061757365640000000000000000000081525060200191505060405180910390fd5b60008a8988856040516020018085600260200280838360005b83811015611b32578082015181840152602081019050611b17565b505050509050018460026000925b81841015611b865782846020020151600260200280838360005b83811015611b75578082015181840152602081019050611b5a565b505050509050019260010192611b40565b9250505083600260200280838360005b83811015611bb1578082015181840152602081019050611b96565b5050505090500182600260200280838360005b83811015611bdf578082015181840152602081019050611bc4565b505050509050019450505050506040516020818303038152906040528051906020012090506000601360008381526020019081526020016000206001015414611c90576040517f08c379a000000000000000000000000000000000000000000000000000000000815260040180806020018281038252601a8152602001807f536f6c7574696f6e20616c7265616479207375626d697474656400000000000081525060200191505060405180910390fd5b611ca18b8b8b8b8b8b8b8b8b6126c6565b611d13576040517f08c379a00000000000000000000000000000000000000000000000000000000081526004018080602001828103825260158152602001807f536f6c7574696f6e20697320696e636f7272656374000000000000000000000081525060200191505060405180910390fd5b60405180604001604052808e73ffffffffffffffffffffffffffffffffffffffff1681526020018d8152506013600083815260200190815260200160002060008201518160000160006101000a81548173ffffffffffffffffffffffffffffffffffffffff021916908373ffffffffffffffffffffffffffffffffffffffff160217905550602082015181600101559050507ffec8a71fa6c8a5b62fc287180a595fa2b01835ec8b6afca9a40cf8371ce1f698816040518082815260200191505060405180910390a1809150509b9a5050505050505050505050565b60008060009054906101000a900473ffffffffffffffffffffffffffffffffffffffff16905090565b3373ffffffffffffffffffffffffffffffffffffffff168273ffffffffffffffffffffffffffffffffffffffff161415611e5157600080fd5b80600560003373ffffffffffffffffffffffffffffffffffffffff1673ffffffffffffffffffffffffffffffffffffffff16815260200190815260200160002060008473ffffffffffffffffffffffffffffffffffffffff1673ffffffffffffffffffffffffffffffffffffffff16815260200190815260200160002060006101000a81548160ff0219169083151502179055508173ffffffffffffffffffffffffffffffffffffffff163373ffffffffffffffffffffffffffffffffffffffff167f17307eab39ab6107e8899845ad3d59bd9653f200f220920489ca2b5937696c3183604051808215151515815260200191505060405180910390a35050565b60001515600060149054906101000a900460ff16151514611fdb576040517f08c379a00000000000000000000000000000000000000000000000000000000081526004018080602001828103825260168152602001807f54686520636f6e7472616374206973207061757365640000000000000000000081525060200191505060405180910390fd5b600073ffffffffffffffffffffffffffffffffffffffff166013600083815260200190815260200160002060000160009054906101000a900473ffffffffffffffffffffffffffffffffffffffff1673ffffffffffffffffffffffffffffffffffffffff1614156120b4576040517f08c379a00000000000000000000000000000000000000000000000000000000081526004018080602001828103825260188152602001807f536f6c7574696f6e20697320616c72656164792075736564000000000000000081525060200191505060405180910390fd5b61210a6013600083815260200190815260200160002060000160009054906101000a900473ffffffffffffffffffffffffffffffffffffffff1660136000848152602001908152602001600020600101546118cf565b5060006013600083815260200190815260200160002060000160006101000a81548173ffffffffffffffffffffffffffffffffffffffff021916908373ffffffffffffffffffffffffffffffffffffffff16021790555050565b61216f8484846117f1565b61217b84848484612b35565b61218457600080fd5b50505050565b606060118054600181600116156101000203166002900480601f0160208091040260200160405190810160405280929190818152602001828054600181600116156101000203166002900480156122225780601f106121f757610100808354040283529160200191612222565b820191906000526020600020905b81548152906001019060200180831161220557829003601f168201915b5050505050905090565b61223581612d1e565b6122a7576040517f08c379a00000000000000000000000000000000000000000000000000000000081526004018080602001828103825260158152602001807f546f6b656e20646f6573206e6f742065786973742e000000000000000000000081525060200191505060405180910390fd5b61235360118054600181600116156101000203166002900480601f0160208091040260200160405190810160405280929190818152602001828054600181600116156101000203166002900480156123405780601f1061231557610100808354040283529160200191612340565b820191906000526020600020905b81548152906001019060200180831161232357829003601f168201915b505050505061234e83612d90565b612ebd565b601260008381526020019081526020016000209080519060200190612379929190614a50565b5050565b606061238882612d1e565b61239157600080fd5b601260008381526020019081526020016000208054600181600116156101000203166002900480601f0160208091040260200160405190810160405280929190818152602001828054600181600116156101000203166002900480156124385780601f1061240d57610100808354040283529160200191612438565b820191906000526020600020905b81548152906001019060200180831161241b57829003601f168201915b50505050509050919050565b6000600560008473ffffffffffffffffffffffffffffffffffffffff1673ffffffffffffffffffffffffffffffffffffffff16815260200190815260200160002060008373ffffffffffffffffffffffffffffffffffffffff1673ffffffffffffffffffffffffffffffffffffffff16815260200190815260200160002060009054906101000a900460ff16905092915050565b6000809054906101000a900473ffffffffffffffffffffffffffffffffffffffff1673ffffffffffffffffffffffffffffffffffffffff163373ffffffffffffffffffffffffffffffffffffffff161461257d576040517f08c379a000000000000000000000000000000000000000000000000000000000815260040180806020018281038252602f815260200180614d30602f913960400191505060405180910390fd5b600073ffffffffffffffffffffffffffffffffffffffff168173ffffffffffffffffffffffffffffffffffffffff161415612620576040517f08c379a000000000000000000000000000000000000000000000000000000000815260040180806020018281038252600f8152602001807f496e76616c69642061646472657373000000000000000000000000000000000081525060200191505060405180910390fd5b806000806101000a81548173ffffffffffffffffffffffffffffffffffffffff021916908373ffffffffffffffffffffffffffffffffffffffff1602179055507f079076b938875eb6c289c646523dea0710c3fca11a87f93daa0588354a86153e81604051808273ffffffffffffffffffffffffffffffffffffffff1673ffffffffffffffffffffffffffffffffffffffff16815260200191505060405180910390a150565b60006126d0614ad0565b60405180604001604052808c6000600281106126e857fe5b602002015181526020018c6001600281106126ff57fe5b6020020151815250816000018190525060405180604001604052808b60006002811061272757fe5b602002015181526020018b60016002811061273e57fe5b60200201518152508160200181905250604051806040016040528060405180604001604052808c60006002811061277157fe5b602002015160006002811061278257fe5b602002015181526020018c60006002811061279957fe5b60200201516001600281106127aa57fe5b6020020151815250815260200160405180604001604052808c6001600281106127cf57fe5b60200201516000600281106127e057fe5b602002015181526020018c6001600281106127f757fe5b602002015160016002811061280857fe5b6020020151815250815250816040018190525060405180604001604052808960006002811061283357fe5b602002015181526020018960016002811061284a57fe5b6020020151815250816060018190525060405180604001604052808860006002811061287257fe5b602002015181526020018860016002811061288957fe5b602002015181525081608001819052506040518060400160405280876000600281106128b157fe5b60200201518152602001876001600281106128c857fe5b60200201518152508160a001819052506040518060400160405280866000600281106128f057fe5b602002015181526020018660016002811061290757fe5b60200201518152508160e0018190525060405180604001604052808560006002811061292f57fe5b602002015181526020018560016002811061294657fe5b60200201518152508160c00181905250606060026040519080825280602002602001820160405280156129885781602001602082028038833980820191505090505b50905060008090505b60028110156129d0578481600281106129a657fe5b60200201518282815181106129b757fe5b6020026020010181815250508080600101915050612991565b5060006129dd8284612f01565b1415612a39577f3f3cfdb26fb5f9f1786ab4f1a1f9cd4c0b5e726cbdfc26e495261731aad44e39604051808060200182810382526022815260200180614d0e6022913960400191505060405180910390a1600192505050612a40565b6000925050505b9998505050505050505050565b600080612a59836119e7565b90508073ffffffffffffffffffffffffffffffffffffffff168473ffffffffffffffffffffffffffffffffffffffff161480612ac857508373ffffffffffffffffffffffffffffffffffffffff16612ab0846112df565b73ffffffffffffffffffffffffffffffffffffffff16145b80612ad95750612ad88185612444565b5b91505092915050565b612aed838383613129565b612af783826133af565b612b01828261354d565b505050565b612b108282613614565b612b1a828261354d565b612b2381613796565b5050565b600081600001549050919050565b6000612b568473ffffffffffffffffffffffffffffffffffffffff166137e2565b612b635760019050612d16565b60008473ffffffffffffffffffffffffffffffffffffffff1663150b7a02338887876040518563ffffffff1660e01b8152600401808573ffffffffffffffffffffffffffffffffffffffff1673ffffffffffffffffffffffffffffffffffffffff1681526020018473ffffffffffffffffffffffffffffffffffffffff1673ffffffffffffffffffffffffffffffffffffffff16815260200183815260200180602001828103825283818151815260200191508051906020019080838360005b83811015612c3e578082015181840152602081019050612c23565b50505050905090810190601f168015612c6b5780820380516001836020036101000a031916815260200191505b5095505050505050602060405180830381600087803b158015612c8d57600080fd5b505af1158015612ca1573d6000803e3d6000fd5b505050506040513d6020811015612cb757600080fd5b8101908080519060200190929190505050905063150b7a0260e01b7bffffffffffffffffffffffffffffffffffffffffffffffffffffffff1916817bffffffffffffffffffffffffffffffffffffffffffffffffffffffff1916149150505b949350505050565b6000806002600084815260200190815260200160002060009054906101000a900473ffffffffffffffffffffffffffffffffffffffff169050600073ffffffffffffffffffffffffffffffffffffffff168173ffffffffffffffffffffffffffffffffffffffff161415915050919050565b60606000821415612dd8576040518060400160405280600181526020017f30000000000000000000000000000000000000000000000000000000000000008152509050612eb8565b600082905060005b60008214612e02578080600101915050600a8281612dfa57fe5b049150612de0565b6060816040519080825280601f01601f191660200182016040528015612e375781602001600182028038833980820191505090505b50905060006001830390505b60008614612eb057600a8681612e5557fe5b0660300160f81b82828060019003935081518110612e6f57fe5b60200101907effffffffffffffffffffffffffffffffffffffffffffffffffffffffffffff1916908160001a905350600a8681612ea857fe5b049550612e43565b819450505050505b919050565b6060612ef9838360405180602001604052806000815250604051806020016040528060008152506040518060200160405280600081525061382d565b905092915050565b6000612f0b614b45565b612f13613aef565b90508060e0015151600185510114612f2a57600080fd5b612f32614bb4565b6040518060400160405280600081526020016000815250905060008090505b8551811015612fa957612f9a82612f958560e001516001850181518110612f7457fe5b6020026020010151898581518110612f8857fe5b6020026020010151614123565b6141b7565b91508080600101915050612f51565b50612fcc818360e00151600081518110612fbf57fe5b60200260200101516141b7565b9050612ff584600001518360000151612fe8876020015161426a565b612ff0614304565b6143ce565b61300457600192505050613123565b61302b8260200151856040015161301e876060015161426a565b613026614304565b6143ce565b61303a57600292505050613123565b613061846080015183604001516130548760a0015161426a565b61305c614304565b6143ce565b61307057600392505050613123565b6130bc8460c0015183606001516130a061309b856130968a600001518b608001516141b7565b6141b7565b61426a565b8560a001516130b2876080015161426a565b89604001516144ca565b6130cb57600492505050613123565b61310d6130dc8286600001516141b7565b85604001516130ee8760e0015161426a565b8560c00151613100896080015161426a565b613108614304565b6144ca565b61311c57600592505050613123565b6000925050505b92915050565b8273ffffffffffffffffffffffffffffffffffffffff166002600083815260200190815260200160002060009054906101000a900473ffffffffffffffffffffffffffffffffffffffff1673ffffffffffffffffffffffffffffffffffffffff16146131e0576040517f08c379a000000000000000000000000000000000000000000000000000000000815260040180806020018281038252602e815260200180614d8a602e913960400191505060405180910390fd5b600073ffffffffffffffffffffffffffffffffffffffff168273ffffffffffffffffffffffffffffffffffffffff161415613266576040517f08c379a000000000000000000000000000000000000000000000000000000000815260040180806020018281038252602b815260200180614d5f602b913960400191505060405180910390fd5b61326f816145fa565b6132b6600460008473ffffffffffffffffffffffffffffffffffffffff1673ffffffffffffffffffffffffffffffffffffffff1681526020019081526020016000206146b8565b6132fd600460008573ffffffffffffffffffffffffffffffffffffffff1673ffffffffffffffffffffffffffffffffffffffff1681526020019081526020016000206146ce565b816002600083815260200190815260200160002060006101000a81548173ffffffffffffffffffffffffffffffffffffffff021916908373ffffffffffffffffffffffffffffffffffffffff160217905550808273ffffffffffffffffffffffffffffffffffffffff168473ffffffffffffffffffffffffffffffffffffffff167fddf252ad1be2c89b69c2b068fc378daa952ba7f163c4a11628f55a4df523b3ef60405160405180910390a4505050565b60006134076001600660008673ffffffffffffffffffffffffffffffffffffffff1673ffffffffffffffffffffffffffffffffffffffff168152602001908152602001600020805490506146f190919063ffffffff16565b90506000600760008481526020019081526020016000205490508181146134f4576000600660008673ffffffffffffffffffffffffffffffffffffffff1673ffffffffffffffffffffffffffffffffffffffff168152602001908152602001600020838154811061347457fe5b9060005260206000200154905080600660008773ffffffffffffffffffffffffffffffffffffffff1673ffffffffffffffffffffffffffffffffffffffff16815260200190815260200160002083815481106134cc57fe5b9060005260206000200181905550816007600083815260200190815260200160002081905550505b600660008573ffffffffffffffffffffffffffffffffffffffff1673ffffffffffffffffffffffffffffffffffffffff1681526020019081526020016000208054809190600190036135469190614bce565b5050505050565b600660008373ffffffffffffffffffffffffffffffffffffffff1673ffffffffffffffffffffffffffffffffffffffff168152602001908152602001600020805490506007600083815260200190815260200160002081905550600660008373ffffffffffffffffffffffffffffffffffffffff1673ffffffffffffffffffffffffffffffffffffffff1681526020019081526020016000208190806001815401808255809150509060018203906000526020600020016000909192909190915055505050565b6001151561362182612d1e565b15151415613697576040517f08c379a00000000000000000000000000000000000000000000000000000000081526004018080602001828103825260178152602001807f546f6b656e20494420616c72656164792065786973747300000000000000000081525060200191505060405180910390fd5b816002600083815260200190815260200160002060006101000a81548173ffffffffffffffffffffffffffffffffffffffff021916908373ffffffffffffffffffffffffffffffffffffffff160217905550613730600460008473ffffffffffffffffffffffffffffffffffffffff1673ffffffffffffffffffffffffffffffffffffffff1681526020019081526020016000206146b8565b808273ffffffffffffffffffffffffffffffffffffffff16613750611def565b73ffffffffffffffffffffffffffffffffffffffff167fddf252ad1be2c89b69c2b068fc378daa952ba7f163c4a11628f55a4df523b3ef60405160405180910390a45050565b6008805490506009600083815260200190815260200160002081905550600881908060018154018082558091505090600182039060005260206000200160009091929091909150555050565b60008060007fc5d2460186f7233c927e7db2dcc703c0e500b653ca82273b7bfad8045d85a47060001b9050833f915080821415801561382457506000801b8214155b92505050919050565b6060808690506060869050606086905060608690506060869050606081518351855187518951010101016040519080825280601f01601f1916602001820160405280156138895781602001600182028038833980820191505090505b509050606081905060008090506000809050600090505b885181101561390e578881815181106138b557fe5b602001015160f81c60f81b8383806001019450815181106138d257fe5b60200101907effffffffffffffffffffffffffffffffffffffffffffffffffffffffffffff1916908160001a90535080806001019150506138a0565b600090505b87518110156139815787818151811061392857fe5b602001015160f81c60f81b83838060010194508151811061394557fe5b60200101907effffffffffffffffffffffffffffffffffffffffffffffffffffffffffffff1916908160001a9053508080600101915050613913565b600090505b86518110156139f45786818151811061399b57fe5b602001015160f81c60f81b8383806001019450815181106139b857fe5b60200101907effffffffffffffffffffffffffffffffffffffffffffffffffffffffffffff1916908160001a9053508080600101915050613986565b600090505b8551811015613a6757858181518110613a0e57fe5b602001015160f81c60f81b838380600101945081518110613a2b57fe5b60200101907effffffffffffffffffffffffffffffffffffffffffffffffffffffffffffff1916908160001a90535080806001019150506139f9565b600090505b8451811015613ada57848181518110613a8157fe5b602001015160f81c60f81b838380600101945081518110613a9e57fe5b60200101907effffffffffffffffffffffffffffffffffffffffffffffffffffffffffffff1916908160001a9053508080600101915050613a6c565b82995050505050505050505095945050505050565b613af7614b45565b604051806040016040528060405180604001604052807f0abbb11863eff28c66085e255ef09de1c37a9aca938c4acbcc78312aec85f4b081526020017f2e9da81a5ce1ebdfdf68ead5c5f75f7be6332c180e47ece9a79c93264cb0bdf4815250815260200160405180604001604052807f042d195b25eafe5b1a28723f79249cd40eec1b605312ed058a526ad2cc1a861281526020017f24ea08462399c974e5dd46fef72c7c77568f3e401044bdfe1921da72ca95b367815250815250816000018190525060405180604001604052807f21d073c8aa5591b80d17123ef1fe131ce7407aed410eaedd02cb0950d361101981526020017f2a06a0ad9da156d93466924cc211004a70df51292ed6852fd3b5ac419f7958fe8152508160200181905250604051806040016040528060405180604001604052807f22e62000bc0798e97270f72427b89699a45a4521f543c7140c8ad0c5337fa24481526020017f0bad8786a57570c827026a12fd6fb58d0732682dfdf33b251e7e06c55aab7d01815250815260200160405180604001604052807f20d69782f22df36c84fca9f569b09945e4413be952c626252e53da56a24cb5e781526020017f1f3422cf44031481a7108483f88cf39775f4b0c70317ab8ed50b9556db89ca788152508152508160400181905250604051806040016040528060405180604001604052807f1a3b39e61960d6909d5066ca3b49d8c81c0339e12a71dee4be65cb673010c91a81526020017f2b106b37e3e22915e42c25251fc1e63a5cfd1a91dd4fb4a84b932922c9d96f5d815250815260200160405180604001604052807f28f46c047aa2c17de0f80f62f961c1883bd3a0927edad7618610f4a78858ba8c81526020017f1ad854abd914e047f702a9600de6c36396fc59a5d548502cf7d41991b439e071815250815250816060018190525060405180604001604052807f0dad39f81f195d68f722df46256c292e6b35fa2503278312dfb9d000eab98b3a81526020017f0d6304e06dbff34e70b5ef45b0a7f9d4332efbea3a5a1be4d87e43997a63e9028152508160800181905250604051806040016040528060405180604001604052807f2a980fbac02244b645b3c77c8cab8e9214b5b0de1f7a8f8e8c70764c59f975db81526020017f172737ef13a5e7ee8fb42246cebae5fee806bbc99b05a5ea5e69c354e65fcd19815250815260200160405180604001604052807f03feb917daf737da65347157be5437a86a94fa1ec7dd143165be7ee8a240418a81526020017f18950f506a845cb2edca350bbc539b12d056e51b137caeb8c0da1cb6130144928152508152508160a00181905250604051806040016040528060405180604001604052807f12b327e3e3e7552a7be48da896f0260ae3c200d7ead71e7c959d8095f0bca1a681526020017f0b6c0c1028f587efc9628e585f79629b325078b30db98c4ba79857b8da7f5458815250815260200160405180604001604052807f0848cb656e870c0772ab4539921322b3bd9c9e4402bb68f2980ad042ba55cc7581526020017f19cc1de164bef5b66dfb27628244dea1aeef53aeae895f76ae7fd294518b13738152508152508160c001819052506003604051908082528060200260200182016040528015613fc557816020015b613fb2614bfa565b815260200190600190039081613faa5790505b508160e0018190525060405180604001604052807f06a636e8f1a43ce1e0c3e499feca248acba76b8a23b9cff8122001bc101bb72981526020017f235ed412beed20a5850ea359a7c71f00a44d49e5261d73f79663782fcefc3b388152508160e0015160008151811061403457fe5b602002602001018190525060405180604001604052807f088a563c5529603c116446b99282906d85829f995c669caabc20e34fc404e48381526020017f23bfa09c05b82445470a7cb184065c7b141696bce13973fbf54327c5292f31a18152508160e001516001815181106140a557fe5b602002602001018190525060405180604001604052807eed7829344c994deeabedbd2b056cfd6a79e2ab5b43c8d8ec168b6f3e05a91281526020017f012d7e283ec89a5dd6e08ab612a5ad1668fec1e71ca30f401d00acedb03249278152508160e0015160028151811061411557fe5b602002602001018190525090565b61412b614bb4565b614133614c14565b83600001518160006003811061414557fe5b60200201818152505083602001518160016003811061416057fe5b602002018181525050828160026003811061417757fe5b6020020181815250506000606083608084600060076107d05a03f1905080600081146141a2576141a4565bfe5b50806141af57600080fd5b505092915050565b6141bf614bb4565b6141c7614c36565b8360000151816000600481106141d957fe5b6020020181815250508360200151816001600481106141f457fe5b60200201818152505082600001518160026004811061420f57fe5b60200201818152505082602001518160036004811061422a57fe5b602002018181525050600060608360c084600060066107d05a03f19050806000811461425557614257565bfe5b508061426257600080fd5b505092915050565b614272614bb4565b60007f30644e72e131a029b85045b68181585d97816a916871ca8d3c208c16d87cfd479050600083600001511480156142af575060008360200151145b156142d35760405180604001604052806000815260200160008152509150506142ff565b604051806040016040528084600001518152602001828560200151816142f557fe5b0683038152509150505b919050565b61430c614c58565b604051806040016040528060405180604001604052807f198e9393920d483a7260bfb731fb5d25f1aa493335a9e71297e485b7aef312c281526020017f1800deef121f1e76426a00665e5c4479674322d4f75edadd46debd5cd992f6ed815250815260200160405180604001604052807f090689d0585ff075ec9e99ad690c3395bc4b313370b38ef355acdadcd122975b81526020017f12c85ea5db8c6deb4aab71808dcb408fe3d1e7690c43d37b4ce6cc0166fa7daa815250815250905090565b60006060600260405190808252806020026020018201604052801561440d57816020015b6143fa614bfa565b8152602001906001900390816143f25790505b5090506060600260405190808252806020026020018201604052801561444d57816020015b61443a614c7e565b8152602001906001900390816144325790505b509050868260008151811061445e57fe5b6020026020010181905250848260018151811061447757fe5b6020026020010181905250858160008151811061449057fe5b602002602001018190525083816001815181106144a957fe5b60200260200101819052506144be828261473b565b92505050949350505050565b60006060600360405190808252806020026020018201604052801561450957816020015b6144f6614bfa565b8152602001906001900390816144ee5790505b5090506060600360405190808252806020026020018201604052801561454957816020015b614536614c7e565b81526020019060019003908161452e5790505b509050888260008151811061455a57fe5b6020026020010181905250868260018151811061457357fe5b6020026020010181905250848260028151811061458c57fe5b602002602001018190525087816000815181106145a557fe5b602002602001018190525085816001815181106145be57fe5b602002602001018190525083816002815181106145d757fe5b60200260200101819052506145ec828261473b565b925050509695505050505050565b600073ffffffffffffffffffffffffffffffffffffffff166003600083815260200190815260200160002060009054906101000a900473ffffffffffffffffffffffffffffffffffffffff1673ffffffffffffffffffffffffffffffffffffffff16146146b55760006003600083815260200190815260200160002060006101000a81548173ffffffffffffffffffffffffffffffffffffffff021916908373ffffffffffffffffffffffffffffffffffffffff1602179055505b50565b6001816000016000828254019250508190555050565b6146e6600182600001546146f190919063ffffffff16565b816000018190555050565b600061473383836040518060400160405280601e81526020017f536166654d6174683a207375627472616374696f6e206f766572666c6f770000815250614990565b905092915050565b6000815183511461474b57600080fd5b600083519050600060068202905060608160405190808252806020026020018201604052801561478a5781602001602082028038833980820191505090505b50905060008090505b83811015614930578681815181106147a757fe5b6020026020010151600001518260006006840201815181106147c557fe5b6020026020010181815250508681815181106147dd57fe5b6020026020010151602001518260016006840201815181106147fb57fe5b60200260200101818152505085818151811061481357fe5b60200260200101516000015160006002811061482b57fe5b602002015182600260068402018151811061484257fe5b60200260200101818152505085818151811061485a57fe5b60200260200101516000015160016002811061487257fe5b602002015182600360068402018151811061488957fe5b6020026020010181815250508581815181106148a157fe5b6020026020010151602001516000600281106148b957fe5b60200201518260046006840201815181106148d057fe5b6020026020010181815250508581815181106148e857fe5b60200260200101516020015160016002811061490057fe5b602002015182600560068402018151811061491757fe5b6020026020010181815250508080600101915050614793565b50614939614ca4565b60006020826020860260208601600060086107d05a03f19050806000811461496057614962565bfe5b508061496d57600080fd5b60008260006001811061497c57fe5b602002015114159550505050505092915050565b6000838311158290614a3d576040517f08c379a00000000000000000000000000000000000000000000000000000000081526004018080602001828103825283818151815260200191508051906020019080838360005b83811015614a025780820151818401526020810190506149e7565b50505050905090810190601f168015614a2f5780820380516001836020036101000a031916815260200191505b509250505060405180910390fd5b5060008385039050809150509392505050565b828054600181600116156101000203166002900490600052602060002090601f016020900481019282601f10614a9157805160ff1916838001178555614abf565b82800160010185558215614abf579182015b82811115614abe578251825591602001919060010190614aa3565b5b509050614acc9190614cc6565b5090565b604051806101000160405280614ae4614bfa565b8152602001614af1614bfa565b8152602001614afe614c7e565b8152602001614b0b614bfa565b8152602001614b18614bfa565b8152602001614b25614bfa565b8152602001614b32614bfa565b8152602001614b3f614bfa565b81525090565b604051806101000160405280614b59614c7e565b8152602001614b66614bfa565b8152602001614b73614c7e565b8152602001614b80614c7e565b8152602001614b8d614bfa565b8152602001614b9a614c7e565b8152602001614ba7614c7e565b8152602001606081525090565b604051806040016040528060008152602001600081525090565b815481835581811115614bf557818360005260206000209182019101614bf49190614cc6565b5b505050565b604051806040016040528060008152602001600081525090565b6040518060600160405280600390602082028038833980820191505090505090565b6040518060800160405280600490602082028038833980820191505090505090565b6040518060400160405280614c6b614ceb565b8152602001614c78614ceb565b81525090565b6040518060400160405280614c91614ceb565b8152602001614c9e614ceb565b81525090565b6040518060200160405280600190602082028038833980820191505090505090565b614ce891905b80821115614ce4576000816000905550600101614ccc565b5090565b90565b604051806040016040528060029060208202803883398082019150509050509056fe5472616e73616374696f6e207375636365737366756c6c792076657269666965642e4f6e6c7920746865206f776e657220697320616c6c6f77656420746f2063616c6c20746869732066756e6374696f6e546f6b656e2068617320746f206265207472616e73666572656420746f2076616c696420616464726573734f776e6572206f662074686520746f6b656e20646966666572656e742066726f6d2066726f6d2061646472657373a265627a7a7231582014d18392d880e4c902e4f44aade4879fd630f5c4aa5cc51e2abe732ddc790e3764736f6c6343000510003268747470733a2f2f73332d75732d776573742d322e616d617a6f6e6177732e636f6d2f756461636974792d626c6f636b636861696e2f63617073746f6e652f",
  "source": "pragma solidity >=0.4.21 <0.6.0;\n\n// TODO define a contract call to the zokrates generated solidity contract <Verifier> or <renamedVerifier>\nimport './Verifier.sol';\nimport './ERC721Mintable.sol';\n\n\n// TODO define another contract named SolnSquareVerifier that inherits from your ERC721Mintable class\ncontract SolnSquareVerifier is PatriciaERC721Token, Verifier{\n\n  // TODO define a solutions struct that can hold an index & an address\n  struct Solution {\n      address to;\n      uint256 tokenId;\n  }\n\n\n// TODO define a mapping to store unique solutions submitted\nmapping(bytes32 => Solution) uniqueSolutions;\n\n\n// TODO Create an event to emit when a solution is added\nevent SolutionAdded(bytes32 key);\n\n\n// TODO Create a function to add the solutions to the array and emit the event\nfunction addSolution(\n  address to,\n  uint256 tokenId,\n  uint[2] memory a,\n  uint[2] memory a_p,\n  uint[2][2] memory b,\n  uint[2] memory b_p,\n  uint[2] memory c,\n  uint[2] memory c_p,\n  uint[2] memory h,\n  uint[2] memory k,\n  uint[2] memory input\n  ) public whenNotPaused returns(bytes32)\n    {\n\n        bytes32 key = keccak256(abi.encodePacked(a, b, c, input));\n\n        require(uniqueSolutions[key].tokenId == 0, \"Solution already submitted\");\n        require(verifyTx(a, a_p, b, b_p, c, c_p, h, k, input), \"Solution is incorrect\");\n\n        uniqueSolutions[key] = Solution({to: to, tokenId: tokenId});\n\n        emit SolutionAdded(key);\n        return key;\n    }\n\n\n// TODO Create a function to mint new NFT only after the solution has been verified\n//  - make sure the solution is unique (has not been used before)\n//  - make sure you handle metadata as well as tokenSuplly\nfunction mintToken(bytes32 key) public whenNotPaused \n    {\n\n        require(uniqueSolutions[key].to != address(0), \"Solution is already used\");\n\n        super.mint(uniqueSolutions[key].to, uniqueSolutions[key].tokenId);\n\n        // mark solution as used\n        uniqueSolutions[key].to = address(0);\n\n    }\n}\n",
  "sourcePath": "/home/patricia/Blockchain/Blockchain-Capstone/eth-contracts/contracts/SolnSquareVerifier.sol",
  "compiler": {
    "name": "solc",
    "version": "0.5.16+commit.9c3226ce.Emscripten.clang"
  },
  "schemaVersion": "3.4.8",
  "updatedAt": "2022-07-30T06:06:58.733Z",
  "devdoc": {
    "methods": {
      "isApprovedForAll(address,address)": {
        "details": "Tells whether an operator is approved by a given owner",
        "params": {
          "operator": "operator address which you want to query the approval of",
          "owner": "owner address which you want to query the approval of"
        },
        "return": "bool whether the given operator is approved by the given owner"
      },
      "setApprovalForAll(address,bool)": {
        "details": "Sets or unsets the approval of a given operator An operator is allowed to transfer all tokens of the sender on their behalf",
        "params": {
          "approved": "representing the status of the approval to be set",
          "to": "operator address to set the approval"
        }
      },
      "supportsInterface(bytes4)": {
        "details": "implement supportsInterface(bytes4) using a lookup table"
      },
      "tokenByIndex(uint256)": {
        "details": "Gets the token ID at a given index of all the tokens in this contract Reverts if the index is greater or equal to the total number of tokens",
        "params": {
          "index": "uint256 representing the index to be accessed of the tokens list"
        },
        "return": "uint256 token ID at the given index of the tokens list"
      },
      "tokenOfOwnerByIndex(address,uint256)": {
        "details": "Gets the token ID at a given index of the tokens list of the requested owner",
        "params": {
          "index": "uint256 representing the index to be accessed of the requested tokens list",
          "owner": "address owning the tokens list to be accessed"
        },
        "return": "uint256 token ID at the given index of the tokens list owned by the requested address"
      },
      "totalSupply()": {
        "details": "Gets the total amount of tokens stored by the contract",
        "return": "uint256 representing the total amount of tokens"
      }
    }
  },
  "userdoc": {
    "methods": {}
  }
}